:040000002AEF7FF074
:10FD8C00000E956E1200010EF9EC7EF01200D38875
:10FD9C00D38AD38C1200036E035019EC7FF012003F
:10FDAC00016EFA0E00F0E82EFDD7012EFAD71200E4
:10FDBC00016E030EE82EFED700F0012EFAD71200CA
:10FDCC00016E210EE82EFED700F0012EFAD712009C
:10FDDC00026E0D0E016EFC0EE82EFED7012EFCD726
:10FDEC00022EF7D71200026E000E8C6E02508C128F
:10FDFC008D948D908D8200F000F000F08D920A0EA3
:10FE0C00D6EC7EF0120074686973206973206D79EA
:10FE1C00207465737420737472696E6720666F72D8
:10FE2C00204C41423100026E8D948D80000E8C6E00
:10FE3C0002508C128D8200F000F000F08D928D90AB
:10FE4C00500EDEEC7EF012004D6A4C6A120EF66E0D
:10FE5C00FE0EF76E000EF86E00EE2CF010EE20F099
:10FE6C000900F5CFEEFFE550E150FAE10001C2EFD9
:10FE7C007FF00C0EE6EC7EF00450800AF36E800EE0
:10FE8C00F35C140ED8B4035CD8B005D00350800FCB
:10FE9C00F9EC7EF004D00350AC0FF9EC7EF00C0EB4
:10FEAC00E6EC7EF0120006C008F005C007F04CC06E
:10FEBC0009F04DC00AF01DD009C003F00AC004F0CF
:10FECC003FEC7FF007C0D9FF08C0DAFFDF50D1EC60
:10FEDC007EF0074A082A094A0A2A0A50800A800F2B
:10FEEC00280ED8B4095CD8A004D0000E0A6E000EFF
:10FEFC00096E07C0D9FF08C0DAFFDF50D8B4120072
:10FF0C00DBD71E0ED6EC7EF0000E8C6E8D948D9091
:10FF1C008D92000E956E969496909692000E8C6E25
:10FF2C00380E8C128D8200F000F000F08D920A0ECB
:10FF3C00D6EC7EF0000E8C6E380E8C128D8200F09A
:10FF4C0000F000F08D92280EDEEC7EF0000E8C6E30
:10FF5C00380E8C128D8200F000F000F08D92280E7D
:10FF6C00DEEC7EF0380EF9EC7EF00C0EF9EC7EF047
:10FF7C00060EF9EC7EF01200CDEC7EF0C6EC7EF0B5
:10FF8C0087EC7FF0C9EC7EF020EE2CF010EE0BF03D
:10FF9C00200EDECFE6FFE82EFCD7720E2B6E000E85
:10FFAC00046E010E036E3FEC7FF02B50D1EC7EF013
:10FFBC00320E2B6E4CC003F04DC004F03FEC7FF0C2
:10FFCC00000E066E0B0E056E59EC7FF0C80EEEECB3
:10FFDC007EF04C4A4D2AC9EC7EF04D50800A800FC1
:10FFEC00280ED8B44C5CD8A0E5D7000E4D6E000E90
:04FFFC004C6EE0D790
:020000040020DA
:08000000FFFFFFFFFFFFFFFF00
:020000040030CA
:0E000000FF08191EFF8181FF0FC00FE00F40A7
:00000001FF
